{
  "contractName": "Distributor",
  "abi": [
    {
      "inputs": [
        {
          "internalType": "uint256",
          "name": "initialRate",
          "type": "uint256"
        },
        {
          "internalType": "address payable",
          "name": "wallet",
          "type": "address"
        },
        {
          "internalType": "contract IERC20",
          "name": "tokenAddr",
          "type": "address"
        },
        {
          "internalType": "uint256",
          "name": "transactionCap",
          "type": "uint256"
        },
        {
          "internalType": "uint256",
          "name": "cap",
          "type": "uint256"
        },
        {
          "internalType": "address",
          "name": "admin",
          "type": "address"
        }
      ],
      "payable": false,
      "stateMutability": "nonpayable",
      "type": "constructor"
    },
    {
      "anonymous": false,
      "inputs": [
        {
          "indexed": true,
          "internalType": "address",
          "name": "purchaser",
          "type": "address"
        },
        {
          "indexed": true,
          "internalType": "address",
          "name": "beneficiary",
          "type": "address"
        },
        {
          "indexed": false,
          "internalType": "uint256",
          "name": "value",
          "type": "uint256"
        },
        {
          "indexed": false,
          "internalType": "uint256",
          "name": "amount",
          "type": "uint256"
        }
      ],
      "name": "TokensPurchased",
      "type": "event"
    },
    {
      "payable": true,
      "stateMutability": "payable",
      "type": "fallback"
    },
    {
      "constant": false,
      "inputs": [
        {
          "internalType": "address",
          "name": "beneficiary",
          "type": "address"
        }
      ],
      "name": "buyTokens",
      "outputs": [],
      "payable": true,
      "stateMutability": "payable",
      "type": "function"
    },
    {
      "constant": true,
      "inputs": [],
      "name": "token",
      "outputs": [
        {
          "internalType": "contract IERC20",
          "name": "",
          "type": "address"
        }
      ],
      "payable": false,
      "stateMutability": "view",
      "type": "function"
    },
    {
      "constant": true,
      "inputs": [],
      "name": "wallet",
      "outputs": [
        {
          "internalType": "address payable",
          "name": "",
          "type": "address"
        }
      ],
      "payable": false,
      "stateMutability": "view",
      "type": "function"
    },
    {
      "constant": true,
      "inputs": [],
      "name": "weiRaised",
      "outputs": [
        {
          "internalType": "uint256",
          "name": "",
          "type": "uint256"
        }
      ],
      "payable": false,
      "stateMutability": "view",
      "type": "function"
    },
    {
      "constant": false,
      "inputs": [
        {
          "internalType": "uint256",
          "name": "newRate",
          "type": "uint256"
        },
        {
          "internalType": "uint256",
          "name": "newCap",
          "type": "uint256"
        }
      ],
      "name": "setRound",
      "outputs": [],
      "payable": false,
      "stateMutability": "nonpayable",
      "type": "function"
    },
    {
      "constant": false,
      "inputs": [
        {
          "internalType": "bool",
          "name": "isActive",
          "type": "bool"
        }
      ],
      "name": "setActivity",
      "outputs": [],
      "payable": false,
      "stateMutability": "nonpayable",
      "type": "function"
    },
    {
      "constant": false,
      "inputs": [
        {
          "internalType": "uint256",
          "name": "newTransactionCap",
          "type": "uint256"
        }
      ],
      "name": "setTransactionCap",
      "outputs": [],
      "payable": false,
      "stateMutability": "nonpayable",
      "type": "function"
    },
    {
      "constant": true,
      "inputs": [],
      "name": "active",
      "outputs": [
        {
          "internalType": "bool",
          "name": "",
          "type": "bool"
        }
      ],
      "payable": false,
      "stateMutability": "view",
      "type": "function"
    },
    {
      "constant": true,
      "inputs": [],
      "name": "transactionCap",
      "outputs": [
        {
          "internalType": "uint256",
          "name": "",
          "type": "uint256"
        }
      ],
      "payable": false,
      "stateMutability": "view",
      "type": "function"
    },
    {
      "constant": true,
      "inputs": [],
      "name": "round",
      "outputs": [
        {
          "internalType": "uint256",
          "name": "",
          "type": "uint256"
        }
      ],
      "payable": false,
      "stateMutability": "view",
      "type": "function"
    },
    {
      "constant": true,
      "inputs": [],
      "name": "rate",
      "outputs": [
        {
          "internalType": "uint256",
          "name": "",
          "type": "uint256"
        }
      ],
      "payable": false,
      "stateMutability": "view",
      "type": "function"
    },
    {
      "constant": true,
      "inputs": [],
      "name": "cap",
      "outputs": [
        {
          "internalType": "uint256",
          "name": "",
          "type": "uint256"
        }
      ],
      "payable": false,
      "stateMutability": "view",
      "type": "function"
    },
    {
      "constant": true,
      "inputs": [],
      "name": "capReached",
      "outputs": [
        {
          "internalType": "bool",
          "name": "",
          "type": "bool"
        }
      ],
      "payable": false,
      "stateMutability": "view",
      "type": "function"
    },
    {
      "constant": true,
      "inputs": [],
      "name": "capLeft",
      "outputs": [
        {
          "internalType": "uint256",
          "name": "",
          "type": "uint256"
        }
      ],
      "payable": false,
      "stateMutability": "view",
      "type": "function"
    }
  ],
  "bytecode": "0x60806040523480156200001157600080fd5b5060405162001a1d38038062001a1d833981810160405260c08110156200003757600080fd5b8101908080519060200190929190805190602001909291908051906020019092919080519060200190929190805190602001909291908051906020019092919050505085858560016000806101000a81548160ff021916908315150217905550600083116200010e576040517f08c379a00000000000000000000000000000000000000000000000000000000081526004018080602001828103825260148152602001807f43726f776473616c653a2072617465206973203000000000000000000000000081525060200191505060405180910390fd5b600073ffffffffffffffffffffffffffffffffffffffff168273ffffffffffffffffffffffffffffffffffffffff16141562000196576040517f08c379a0000000000000000000000000000000000000000000000000000000008152600401808060200182810382526025815260200180620019f86025913960400191505060405180910390fd5b600073ffffffffffffffffffffffffffffffffffffffff168173ffffffffffffffffffffffffffffffffffffffff1614156200021e576040517f08c379a0000000000000000000000000000000000000000000000000000000008152600401808060200182810382526024815260200180620019b26024913960400191505060405180910390fd5b8260028190555081600160006101000a81548173ffffffffffffffffffffffffffffffffffffffff021916908373ffffffffffffffffffffffffffffffffffffffff16021790555080600060016101000a81548173ffffffffffffffffffffffffffffffffffffffff021916908373ffffffffffffffffffffffffffffffffffffffff1602179055505050506000861162000321576040517f08c379a000000000000000000000000000000000000000000000000000000000815260040180806020018281038252601b8152602001807f496e697469616c2072617465206973206c657373207468616e2030000000000081525060200191505060405180910390fd5b6000821162000398576040517f08c379a00000000000000000000000000000000000000000000000000000000081526004018080602001828103825260168152602001807f57656920436170206973206c657373207468616e20300000000000000000000081525060200191505060405180910390fd5b620003b3816004620003dc60201b6200125b1790919060201c565b8260078190555060016006819055508160088190555085600981905550505050505050620005a0565b620003ee8282620004c060201b60201c565b1562000462576040517f08c379a000000000000000000000000000000000000000000000000000000000815260040180806020018281038252601f8152602001807f526f6c65733a206163636f756e7420616c72656164792068617320726f6c650081525060200191505060405180910390fd5b60018260000160008373ffffffffffffffffffffffffffffffffffffffff1673ffffffffffffffffffffffffffffffffffffffff16815260200190815260200160002060006101000a81548160ff0219169083151502179055505050565b60008073ffffffffffffffffffffffffffffffffffffffff168273ffffffffffffffffffffffffffffffffffffffff16141562000549576040517f08c379a0000000000000000000000000000000000000000000000000000000008152600401808060200182810382526022815260200180620019d66022913960400191505060405180910390fd5b8260000160008373ffffffffffffffffffffffffffffffffffffffff1673ffffffffffffffffffffffffffffffffffffffff16815260200190815260200160002060009054906101000a900460ff16905092915050565b61140280620005b06000396000f3fe6080604052600436106100dd5760003560e01c8063521eb2731161007f578063af910e6111610059578063af910e61146102fd578063d1bdac2414610328578063ec8ac4d814610363578063fc0c546a146103a7576100dd565b8063521eb2731461022457806382ba614f1461027b5780639dd07254146102c0576100dd565b8063355274ea116100bb578063355274ea146101745780634042b66f1461019f578063410d3e67146101ca5780634f935945146101f5576100dd565b806302fb0c5e146100ef578063146ca5311461011e5780632c4e722e14610149575b6100ed6100e86103fe565b610406565b005b3480156100fb57600080fd5b50610104610591565b604051808215151515815260200191505060405180910390f35b34801561012a57600080fd5b506101336105a8565b6040518082815260200191505060405180910390f35b34801561015557600080fd5b5061015e6105b2565b6040518082815260200191505060405180910390f35b34801561018057600080fd5b506101896105bc565b6040518082815260200191505060405180910390f35b3480156101ab57600080fd5b506101b46105c6565b6040518082815260200191505060405180910390f35b3480156101d657600080fd5b506101df6105d0565b6040518082815260200191505060405180910390f35b34801561020157600080fd5b5061020a6105da565b604051808215151515815260200191505060405180910390f35b34801561023057600080fd5b506102396105ee565b604051808273ffffffffffffffffffffffffffffffffffffffff1673ffffffffffffffffffffffffffffffffffffffff16815260200191505060405180910390f35b34801561028757600080fd5b506102be6004803603604081101561029e57600080fd5b810190808035906020019092919080359060200190929190505050610618565b005b3480156102cc57600080fd5b506102fb600480360360208110156102e357600080fd5b810190808035151590602001909291905050506106d0565b005b34801561030957600080fd5b50610312610773565b6040518082815260200191505060405180910390f35b34801561033457600080fd5b506103616004803603602081101561034b57600080fd5b8101908080359060200190929190505050610796565b005b6103a56004803603602081101561037957600080fd5b81019080803573ffffffffffffffffffffffffffffffffffffffff169060200190929190505050610406565b005b3480156103b357600080fd5b506103bc610826565b604051808273ffffffffffffffffffffffffffffffffffffffff1673ffffffffffffffffffffffffffffffffffffffff16815260200191505060405180910390f35b600033905090565b6000809054906101000a900460ff16610487576040517f08c379a000000000000000000000000000000000000000000000000000000000815260040180806020018281038252601f8152602001807f5265656e7472616e637947756172643a207265656e7472616e742063616c6c0081525060200191505060405180910390fd5b60008060006101000a81548160ff02191690831515021790555060003490506104b0828261084f565b60006104bb826109e5565b90506104d282600354610a0390919063ffffffff16565b6003819055506104e28382610a8b565b8273ffffffffffffffffffffffffffffffffffffffff166105016103fe565b73ffffffffffffffffffffffffffffffffffffffff167f6faf93231a456e552dbc9961f58d9713ee4f2e69d15f1975b050ef0911053a7b8484604051808381526020018281526020019250505060405180910390a36105608383610a99565b610568610a9d565b6105728383610b08565b505060016000806101000a81548160ff02191690831515021790555050565b6000600560009054906101000a900460ff16905090565b6000600654905090565b6000600954905090565b6000600854905090565b6000600354905090565b6000600754905090565b60006008546105e76105c6565b1015905090565b6000600160009054906101000a900473ffffffffffffffffffffffffffffffffffffffff16905090565b61062c336004610b0c90919063ffffffff16565b61069e576040517f08c379a00000000000000000000000000000000000000000000000000000000081526004018080602001828103825260188152602001807f444f45535f4e4f545f484156455f41444d494e5f524f4c45000000000000000081525060200191505060405180910390fd5b6106b46001600654610a0390919063ffffffff16565b6006819055506106c382610bea565b6106cc81610bf4565b5050565b6106e4336004610b0c90919063ffffffff16565b610756576040517f08c379a00000000000000000000000000000000000000000000000000000000081526004018080602001828103825260188152602001807f444f45535f4e4f545f484156455f41444d494e5f524f4c45000000000000000081525060200191505060405180910390fd5b80600560006101000a81548160ff02191690831515021790555050565b60006107916107806105c6565b600854610c1290919063ffffffff16565b905090565b6107aa336004610b0c90919063ffffffff16565b61081c576040517f08c379a00000000000000000000000000000000000000000000000000000000081526004018080602001828103825260188152602001807f444f45535f4e4f545f484156455f41444d494e5f524f4c45000000000000000081525060200191505060405180910390fd5b8060078190555050565b60008060019054906101000a900473ffffffffffffffffffffffffffffffffffffffff16905090565b6108598282610c5c565b610861610591565b6108d3576040517f08c379a00000000000000000000000000000000000000000000000000000000081526004018080602001828103825260138152602001807f43726f776473616c65206973205061757365640000000000000000000000000081525060200191505060405180910390fd5b6108db6105d0565b811115610950576040517f08c379a00000000000000000000000000000000000000000000000000000000081526004018080602001828103825260178152602001807f45786365656473207472616e73616374696f6e2063617000000000000000000081525060200191505060405180910390fd5b60085461096d8261095f6105c6565b610a0390919063ffffffff16565b11156109e1576040517f08c379a00000000000000000000000000000000000000000000000000000000081526004018080602001828103825260118152602001807f4578636565647320746f74616c2063617000000000000000000000000000000081525060200191505060405180910390fd5b5050565b60006109fc60095483610d5d90919063ffffffff16565b9050919050565b600080828401905083811015610a81576040517f08c379a000000000000000000000000000000000000000000000000000000000815260040180806020018281038252601b8152602001807f536166654d6174683a206164646974696f6e206f766572666c6f77000000000081525060200191505060405180910390fd5b8091505092915050565b610a958282610de3565b5050565b5050565b600160009054906101000a900473ffffffffffffffffffffffffffffffffffffffff1673ffffffffffffffffffffffffffffffffffffffff166108fc349081150290604051600060405180830381858888f19350505050158015610b05573d6000803e3d6000fd5b50565b5050565b60008073ffffffffffffffffffffffffffffffffffffffff168273ffffffffffffffffffffffffffffffffffffffff161415610b93576040517f08c379a00000000000000000000000000000000000000000000000000000000081526004018080602001828103825260228152602001806113586022913960400191505060405180910390fd5b8260000160008373ffffffffffffffffffffffffffffffffffffffff1673ffffffffffffffffffffffffffffffffffffffff16815260200190815260200160002060009054906101000a900460ff16905092915050565b8060098190555050565b610c0981600854610a0390919063ffffffff16565b60088190555050565b6000610c5483836040518060400160405280601e81526020017f536166654d6174683a207375627472616374696f6e206f766572666c6f770000815250610e34565b905092915050565b600073ffffffffffffffffffffffffffffffffffffffff168273ffffffffffffffffffffffffffffffffffffffff161415610ce2576040517f08c379a000000000000000000000000000000000000000000000000000000000815260040180806020018281038252602a81526020018061137a602a913960400191505060405180910390fd5b6000811415610d59576040517f08c379a00000000000000000000000000000000000000000000000000000000081526004018080602001828103825260198152602001807f43726f776473616c653a20776569416d6f756e7420697320300000000000000081525060200191505060405180910390fd5b5050565b600080831415610d705760009050610ddd565b6000828402905082848281610d8157fe5b0414610dd8576040517f08c379a00000000000000000000000000000000000000000000000000000000081526004018080602001828103825260218152602001806113376021913960400191505060405180910390fd5b809150505b92915050565b610e308282600060019054906101000a900473ffffffffffffffffffffffffffffffffffffffff1673ffffffffffffffffffffffffffffffffffffffff16610ef49092919063ffffffff16565b5050565b6000838311158290610ee1576040517f08c379a00000000000000000000000000000000000000000000000000000000081526004018080602001828103825283818151815260200191508051906020019080838360005b83811015610ea6578082015181840152602081019050610e8b565b50505050905090810190601f168015610ed35780820380516001836020036101000a031916815260200191505b509250505060405180910390fd5b5060008385039050809150509392505050565b610fc0838473ffffffffffffffffffffffffffffffffffffffff1663a9059cbb905060e01b8484604051602401808373ffffffffffffffffffffffffffffffffffffffff1673ffffffffffffffffffffffffffffffffffffffff16815260200182815260200192505050604051602081830303815290604052907bffffffffffffffffffffffffffffffffffffffffffffffffffffffff19166020820180517bffffffffffffffffffffffffffffffffffffffffffffffffffffffff8381831617835250505050610fc5565b505050565b610fe48273ffffffffffffffffffffffffffffffffffffffff16611210565b611056576040517f08c379a000000000000000000000000000000000000000000000000000000000815260040180806020018281038252601f8152602001807f5361666545524332303a2063616c6c20746f206e6f6e2d636f6e74726163740081525060200191505060405180910390fd5b600060608373ffffffffffffffffffffffffffffffffffffffff16836040518082805190602001908083835b602083106110a55780518252602082019150602081019050602083039250611082565b6001836020036101000a0380198251168184511680821785525050505050509050019150506000604051808303816000865af19150503d8060008114611107576040519150601f19603f3d011682016040523d82523d6000602084013e61110c565b606091505b509150915081611184576040517f08c379a00000000000000000000000000000000000000000000000000000000081526004018080602001828103825260208152602001807f5361666545524332303a206c6f772d6c6576656c2063616c6c206661696c656481525060200191505060405180910390fd5b60008151111561120a578080602001905160208110156111a357600080fd5b8101908080519060200190929190505050611209576040517f08c379a000000000000000000000000000000000000000000000000000000000815260040180806020018281038252602a8152602001806113a4602a913960400191505060405180910390fd5b5b50505050565b60008060007fc5d2460186f7233c927e7db2dcc703c0e500b653ca82273b7bfad8045d85a47060001b9050833f915080821415801561125257506000801b8214155b92505050919050565b6112658282610b0c565b156112d8576040517f08c379a000000000000000000000000000000000000000000000000000000000815260040180806020018281038252601f8152602001807f526f6c65733a206163636f756e7420616c72656164792068617320726f6c650081525060200191505060405180910390fd5b60018260000160008373ffffffffffffffffffffffffffffffffffffffff1673ffffffffffffffffffffffffffffffffffffffff16815260200190815260200160002060006101000a81548160ff021916908315150217905550505056fe536166654d6174683a206d756c7469706c69636174696f6e206f766572666c6f77526f6c65733a206163636f756e7420697320746865207a65726f206164647265737343726f776473616c653a2062656e656669636961727920697320746865207a65726f20616464726573735361666545524332303a204552433230206f7065726174696f6e20646964206e6f742073756363656564a265627a7a723158200d0e0b5819f1e746a2dc94342831cf51e717296cb0a92d5ccd0db28af299354464736f6c6343000511003243726f776473616c653a20746f6b656e20697320746865207a65726f2061646472657373526f6c65733a206163636f756e7420697320746865207a65726f206164647265737343726f776473616c653a2077616c6c657420697320746865207a65726f2061646472657373",
  "source": "pragma solidity ^0.5.0;\n\nimport \"@openzeppelin/contracts/access/Roles.sol\";\nimport \"@openzeppelin/contracts/crowdsale/Crowdsale.sol\";\n\ncontract Distributor is Crowdsale {\n    using SafeMath for uint256;\n    using Roles for Roles.Role;\n\n    Roles.Role private _owners;\n\n    bool private _active;\n    uint256 private _round;\n    uint256 private _transactionCap;\n    uint256 private _cap; // total cap in wei\n    uint256 private _changeableRate; // token / wei price\n\n    constructor(\n        uint256 initialRate,\n        address payable wallet,\n        IERC20 tokenAddr,\n        uint256 transactionCap,\n        uint256 cap,\n        address admin\n    ) public Crowdsale(initialRate, wallet, tokenAddr) {\n        require(initialRate > 0, \"Initial rate is less than 0\");\n        require(cap > 0, \"Wei Cap is less than 0\");\n        _owners.add(admin);\n        _transactionCap = transactionCap;\n        _round = 1;\n        _cap = cap;\n        _changeableRate = initialRate;\n    }\n\n    modifier onlyAdmin() {\n        require(_owners.has(msg.sender), \"DOES_NOT_HAVE_ADMIN_ROLE\");\n        _;\n    }\n\n    function setRound(uint256 newRate, uint256 newCap) external onlyAdmin {\n        _round = _round.add(1);\n        _setRate(newRate);\n        _setCap(newCap);\n    }\n\n    function setActivity(bool isActive) external onlyAdmin {\n        _active = isActive;\n    }\n\n    function setTransactionCap(uint256 newTransactionCap) external onlyAdmin {\n        _transactionCap = newTransactionCap;\n    }\n\n    function _setRate(uint256 newRate) private {\n        _changeableRate = newRate;\n    }\n\n    function _setCap(uint256 additionalCap) private {\n        _cap = _cap.add(additionalCap);\n    }\n\n    function active() public view returns (bool) {\n        return _active;\n    }\n\n    function transactionCap() public view returns (uint256) {\n        return _transactionCap;\n    }\n\n    function round() public view returns (uint256) {\n        return _round;\n    }\n\n    function rate() public view returns (uint256) {\n        return _changeableRate;\n    }\n\n    function cap() public view returns (uint256) {\n        return _cap;\n    }\n\n    /**\n     * @dev Checks whether the cap has been reached.\n     * @return Whether the cap was reached\n     */\n    function capReached() public view returns (bool) {\n        return weiRaised() >= _cap;\n    }\n\n    function capLeft() public view returns (uint256) {\n        return _cap.sub(weiRaised());\n    }\n\n    /**\n     * @dev Overrides the original function\n     * @return How much token you can purchase\n     */\n    function _getTokenAmount(uint256 weiAmount)\n        internal\n        view\n        returns (uint256)\n    {\n        return weiAmount.mul(_changeableRate);\n    }\n\n    /**\n     * @dev Extend parent behavior requiring purchase to respect the funding cap.\n     * @param beneficiary Token purchaser\n     * @param weiAmount Amount of wei contributed\n     */\n    function _preValidatePurchase(address beneficiary, uint256 weiAmount)\n        internal\n        view\n    {\n        super._preValidatePurchase(beneficiary, weiAmount);\n        require(active(), \"Crowdsale is Paused\");\n        require(weiAmount <= transactionCap(), \"Exceeds transaction cap\");\n        require(weiRaised().add(weiAmount) <= _cap, \"Exceeds total cap\");\n    }\n}\n",
  "sourcePath": "/Users/brianko/projects/github/explore/denex/crowdsale-contracts/contracts/Distributor.sol",
  "compiler": {
    "name": "solc",
    "version": "0.5.17+commit.d19bba13.Emscripten.clang"
  },
  "schemaVersion": "3.3.2",
  "updatedAt": "2021-01-21T23:07:20.713Z",
  "networkType": "ethereum",
  "devdoc": {
    "methods": {
      "buyTokens(address)": {
        "details": "low level token purchase ***DO NOT OVERRIDE*** This function has a non-reentrancy guard, so it shouldn't be called by another `nonReentrant` function.",
        "params": {
          "beneficiary": "Recipient of the token purchase"
        }
      },
      "capReached()": {
        "details": "Checks whether the cap has been reached.",
        "return": "Whether the cap was reached"
      },
      "token()": {
        "return": "the token being sold."
      },
      "wallet()": {
        "return": "the address where funds are collected."
      },
      "weiRaised()": {
        "return": "the amount of wei raised."
      }
    }
  },
  "userdoc": {
    "methods": {}
  }
}